:020000040000FA
:1000000002EF00F0936AF86A010EF76E000EF66ECA
:10001000636B646964670FEF00F020EF00F0090E76
:10002000636316EF00F0646B0AEF00F06351F66E45
:100030000800F5CF8AFF632B30EC00F00AEF00F0E8
:10004000636726EF00F064690AEF00F06351F66E13
:100050000800F5CF8AFF630730EC00F00AEF00F0EC
:10006000640E606F38EC00F0602F32EF00F0120089
:100070000A0E616F40EC00F0612F3AEF00F01200C1
:0E0080000A0E626F0000622F42EF00F01200C5
:02008E00000070
:0A0100003F065B4F666D7D077F67C9
:020000040030CA
:0100010008F6
:0100020018E5
:010003001EDE
:010005008179
:010006008178
:00000001FF
